:020000040800F2
:1000000000F40020E9510008F1510008F351000804
:10001000F5510008F7510008F951000800000000F0
:10002000000000000000000000000000FB5100087C
:10003000FD51000800000000FF51000801520008B7
:10004000035200080352000803520008035200083C
:10005000035200080352000803520008035200082C
:100060000352000803520008035200081B42000814
:10007000E741000803520008035200080352000839
:1000800003520008E74F000803520008035200081B
:1000900003520008035200080352000803520008EC
:1000A00003520008D541000803520008035200081B
:1000B0000352000803520008B74100080352000829
:1000C00003520008035200080352000803520008BC
:1000D0000352000895260008F34F00080352000859
:1000E000035200080352000803520008035200089C
:1000F000DD410008035200080352000803520008C3
:10010000035200080352000803520008035200087B
:100110000352000803520008035200085B50000815
:10012000035200080352000803520008035200085B
:10013000035200080352000803520008035200084B
:10014000035200080352000803520008035200083B
:10015000035200080352000803520008035200082B
:10016000035200080352000803520008035200081B
:10017000035200080352000803520008035200080B
:100180000352000803520008DFF80CD006F05CFAB6
:10019000004800479D01000800F400200EB502F061
:1001A000D7FA04F0BAF802F00FFA02F0E4FB04F018
:1001B000B9FE01F00FFE00F058F9002001F07FFCBD
:1001C00002F0CEFC00224FF6FF77334D3946104641
:1001D00005EB800404F54044401CB4F88832B4F8C0
:1001E0008A4280B243EA040623403243194003287E
:1001F000EED32A4E2A4D01240AB1B9420FD130461E
:1002000002F029F92548C188438902898DE80E004A
:1002100083884288018823A006F028FA2C603046A3
:1002200002F069F901F06CFF0146294A294802F001
:10023000AAF8284E28483188018071884180AC6036
:10024000EC602C616C61002001F039FC03F09AFC39
:10025000114803F0C3FD224F204C3D1501F050FF23
:1002600001461B4A1B4802F08EF8228C71883088A8
:1002700001F0ACFE04F0FCFD02F090FA04F02FFF58
:10028000796938464905294602D505F0C4FAE5E7FB
:1002900005F0BFFAE2E700008C00002014C3002044
:1002A00030C3002078303A2025643B2079303A254D
:1002B000643B0A78313A25643B2079313A25643B26
:1002C0000A78323A25643B2079323A25643B0A00A9
:1002D000480000201400002018000020C8EF002073
:1002E000002002401CB50121582005F0E5FB01214A
:1002F000084605F0F5FBFF4C0C220021204605F0D6
:1003000097FA0C220121204605F092FA0C220421D2
:10031000204605F08DFA0C220521204605F088FACA
:100320000C220821204605F083FA0C2209212046E0
:1003300005F07EFA0C220A21204605F079FA0C22FB
:100340000E21204605F074FA0C220F21204605F0FC
:100350006FFA02218DF804108DF8051000214CF27F
:1003600033708DF8061000908DF80710694620460E
:1003700005F0EAF9E04C0C220221204605F058FA7B
:100380000C220721204605F053FA0C2208212046B2
:1003900005F04EFA0C220921204605F049FA0C22FC
:1003A0000A21204605F044FA0C220B21204605F0D4
:1003B0003FFA0C221146204605F03AFA0C220D2194
:1003C000204605F035FA0C220E21204605F030FAC1
:1003D0000C220F21204605F02BFA4FF68471009174
:1003E0006946204605F0B0F9C44C0C220521204690
:1003F00005F01EFA0C221146204605F019FA0C22CF
:100400000D21204605F014FA0C220E21204605F09D
:100410000FFA47F2200100916946204605F094F951
:100420001CBD002240F2754306E00021491C89B240
:100430009942FBD3521C92B28242F6D37047B04924
:10044000088070474FF0DA41088070474FF0DA4279
:100450001080AB4801807047A948008870474FF072
:10046000DA410880A648008870472DE9F05FA54C66
:10047000FFF738FF641EFDD201F076FC4FF4967052
:10048000FFF7CFFFA04A40F2231300205380FFF76D
:10049000E6FFA0F5134150804FF480754FF4E06AF9
:1004A00041F2180740F2272840F207744FF4007C0D
:1004B00040F23F1625397DD0A0F513412839FAD0F6
:1004C000A0F5134140F2022B203974D0B0F5134F40
:1004D000FBD0A0F513414FF4017731396CD0A0F572
:1004E000194140F2055C193967D0A0F5A8510539CA
:1004F00001D060457ED10920107000210720FFF750
:10050000A5FF3220FFF78DFF4FF48E711220FFF709
:100510009DFF0121A420FFF799FF0F210820FFF77D
:1005200095FF08210A20FFF791FF08210D20FFF712
:100530008DFF234621463020FFF788FF0721312019
:10054000FFF784FF40F203613220FFF77FFF54463C
:1005500051463320FFF77AFF59463420FFF776FFE4
:1005600002213520FFF772FF41F60F713620FFF7A9
:100570006DFF19463720FFF769FF00213820FFF78C
:1005800065FF00213920FFF761FF19463A20FFF788
:100590005DFF00213B20FFF759FF07213C20FFF7BB
:1005A00055FF00213D20FFF751FF3220FFF739FFB3
:1005B000012103E0BBE077E292E118E30720FFF7B7
:1005C00045FF01211720FFF741FF3220FFF729FFE8
:1005D0004FF4BD511020FFF739FF40F217211120D1
:1005E000FFF734FF4FF48F711220FFF72FFF4FF406
:1005F000706100E082E31320FFF728FF00212A202A
:10060000FFF724FF0A212920FFF720FF4FF49F71F5
:100610001220FFF71BFF00215020FFF717FFEF21EB
:100620005120FFF713FF00215220FFF70FFF314643
:100630005320FFF70BFF4FF41C516020FFF706FF1C
:1006400001216120FFF702FF00216A20FFF7FEFE73
:1006500000218020FFF7FAFE00218120FFF7F6FE3F
:1006600000218220FFF7F2FE00218320FFF7EEFE3B
:1006700000218420FFF7EAFE00218520FFF7E6FE37
:1006800013219020FFF7E2FE4FF440719220FFF714
:10069000DDFE05219320FFF7D9FE00219520FFF70D
:1006A000D5FE00219720FFF7D1FE00219820FFF70B
:1006B000CDFE29460120FFF7C9FE21460220FFF7A3
:1006C000C5FE41F230010320FFF7C0FE00210420E7
:1006D000FFF7BCFE00210C20FFF7B8FE00210F2021
:1006E000FFF7B4FE00212020FFF7B0FE00212120FB
:1006F0000CE00000000C0240001002400018024014
:100700000000016DFFFF1F0000000020FFF79EFEAC
:1007100021210720FFF79AFEC820FFF782FE612102
:100720000720FFF793FEC820FFF77BFEFDE30120C3
:10073000107047F6F001E520FFF788FE29460120FA
:10074000FFF784FE51460220FFF780FE3946032062
:10075000FFF77CFE00210420FFF778FE40F207211E
:100760000820FFF773FE00210920FFF76FFE00212C
:100770000A20FFF76BFE00210C20FFF767FE002127
:100780000D20FFF763FE00210F20FFF75FFE002121
:100790001020FFF75BFE07211120FFF757FE002115
:1007A0001220FFF753FE00211320FFF74FFE012117
:1007B0000720FFF74BFEC820FFF733FE41F2900100
:1007C0001020FFF743FE41461120FFF73FFE322085
:1007D000FFF727FE1F211220FFF738FE3220FFF718
:1007E00020FE4FF4A8511320FFF730FE27212920C7
:1007F000FFF72CFE0D212B20FFF728FE3220FFF7FC
:1008000010FE00212020FFF721FE00212120FFF70C
:100810001DFE00213020FFF719FE21463120FFF791
:1008200015FE40F207313220FFF710FE61463520F9
:10083000FFF70CFE08213620FFF708FE04213720C1
:10084000FFF704FE00213820FFF700FE2146392083
:10085000FFF7FCFD02213C20FFF7F8FD41F60451B3
:100860003D20FFF7F3FD00215020FFF7EFFDEF21C2
:100870005120FFF7EBFD00215220FFF7E7FD314645
:100880005320FFF7E3FD4FF427416020FFF7DEFD23
:1008900001216120FFF7DAFD00216A20FFF7D6FD74
:1008A00000218020FFF7D2FD00218120FFF7CEFD3F
:1008B00000218220FFF7CAFD00218320FFF7C6FD3B
:1008C00000218420FFF7C2FD00218520FFF7BEFD37
:1008D00010219020FFF7BAFD4FF4C0619220FDE394
:1008E0000320107041F21401E720FFF7AFFD294605
:1008F0000120FFF7ABFD61460220FFF7A7FD41F2A3
:1009000030010320FFF7A2FD59460820FFF79EFDA6
:1009100000210920FFF79AFD00210A20FFF796FD2C
:1009200000210C20FFF792FD00210D20FFF78EFD26
:1009300000210F20FFF78AFD00211020FFF786FD20
:1009400007211120FFF782FD00211220FFF77EFD15
:1009500000211320FFF77AFDC820FFF762FD41F266
:1009600090611020FFF772FD41461120FFF76EFDE8
:100970003220FFF756FD0C211220FFF767FD3220D1
:10098000FFF74FFD4FF400611320FFF75FFD1121CA
:100990002920FFF75BFD0B212B20FFF757FD3220AD
:1009A000FFF73FFD00212020FFF750FD002121200F
:1009B000FFF74CFD00213020FFF748FD4FF4837313
:1009C00019463120FFF742FD00213220FFF73EFD9E
:1009D00039463520FFF73AFD41F20A613620FFF72C
:1009E00035FD21463720FFF731FD19463820FFF746
:1009F0002DFD21463920FFF729FD40F202413C2020
:100A0000FFF724FD40F60F413D20FFF71FFD0021B9
:100A10005020FFF71BFDEF215120FFF717FD0021AC
:100A20005220FFF713FD31465320FFF70FFD4FF41F
:100A30001C516020FFF70AFD01216120FFF706FD30
:100A400000216A20FFF702FD00218020FFF7FEFC55
:100A500000218120FFF7FAFC00218220FFF7F6FC3D
:100A600000218320FFF7F2FC00218420FFF7EEFC39
:100A700000218520FFF7EAFC10219020FFF7E6FC1B
:100A80004FF4C0619220FFF7E1FC21210720FFF71E
:100A9000DDFC3220FFF7C5FC61210720FFF7D6FC03
:100AA0003220FFF7BEFCFDE3002010700146FFF787
:100AB000CDFC29460120FFF7C9FC51460220FFF773
:100AC000C5FC39460320FFF7C1FC00210420FFF7D5
:100AD000BDFC59460820FFF7B9FC00210920FFF7AB
:100AE000B5FC00210A20FFF7B1FC01210C20FFF723
:100AF000ADFC00210D20FFF7A9FC00210F20FFF71E
:100B0000A5FC6420FFF78DFC40F201110720FFF7E0
:100B10009DFC6420FFF785FC4FF486511020FFF701
:100B200095FC07211120FFF791FC4FF488731946BB
:100B30001220FFF78BFC4FF430611320FFF786FC87
:100B400000212920FFF782FC44F210012B20FFF73F
:100B50007DFC00215020FFF779FCEF215120FFF7A9
:100B600075FC00215220FFF771FC31465320FFF73E
:100B70006DFC4FF41C516020FFF768FC01216120DF
:100B8000FFF764FC00216A20FFF760FC0021802051
:100B9000FFF75CFC00218120FFF758FC0021822038
:100BA000FFF754FC00218320FFF750FC0021842034
:100BB000FFF74CFC00218520FFF748FC1021902016
:100BC000FFF744FC00219220FFF740FC0121932015
:100BD000FFF73CFC19469520FFF738FC00219720D1
:100BE000FFF734FC0021982042E30720EBE30D20BF
:100BF000107006212820FFF729FC01210020FFF7B3
:100C000025FC00211020FFF721FC47F2EF210120F5
:100C1000FFF71CFC4FF4C0610220FFF717FC46F6FB
:100C200038210320FFF712FC46F674011120FFF76C
:100C30000DFC00210F20FFF709FC45F208310B20C5
:100C4000FFF704FC03210C20FFF700FC0A210D2014
:100C5000FFF7FCFB4FF438510E20FFF7F7FBBE21E6
:100C60001E20FFF7F3FB4FF400412520FFF7EEFBBA
:100C70004FF4F0412620FFF7E9FB78212720FFF70A
:100C8000E5FB00214E20FFF7E1FB00214F20FFF79D
:100C9000DDFB40F6D9011220FFF7D8FB0021302000
:100CA000FFF7D4FB4FF482713120FFF7CFFB2946C9
:100CB0003220FFF7CBFB40F2053319463320FFF714
:100CC000C5FB61463420FFF7C1FB19463520FFF70D
:100CD000BDFB21463620FFF7B9FB4FF440713720AA
:100CE000FFF7B4FB4FF490513A20FFF7AFFB4FF4FE
:100CF00000613B20FFF7AAFB332176E7A0F509410D
:100D000040F2025840F2023989391DD0A0F509415C
:100D100099397CD0A0F5A841083979D0A0F58A414D
:100D2000313976D0A0F58A41353973D0472872D051
:100D3000A0F5EE4183396FD053806720FFF78FFB1A
:100D40005080472869D0FCE3052010700121002065
:100D5000FFF77CFB3220FFF764FB4AF6A401032077
:100D6000FFF774FB3220FFF75CFB00210C20FFF73C
:100D70006DFB3220FFF755FB40F60C010D20FFF70D
:100D800065FB3220FFF74DFB4FF42C510E20FFF78F
:100D90005DFB3220FFF745FBB0211E20FFF756FB1D
:100DA0003220FFF73EFB42F63F310120FFF74EFBBA
:100DB0003220FFF736FB4FF4C0610220FFF746FBFD
:100DC0003220FFF72EFB00211020FFF73FFB3220DF
:100DD000FFF727FB46F270011120FFF737FB3220A7
:100DE000FFF71FFB00210520FFF730FB3220FFF744
:100DF00018FB00210620FFF729FB3220FFF711FB2B
:100E00004EF61C711620FFF721FB322006E0D1E0E0
:100E100090E132E2D8E2FCE37DE3FBE3FFF701FB84
:100E200003211720FFF712FB3220FFF7FAFA40F2F6
:100E300033110720FFF70AFB3220FFF7F2FA0021F7
:100E40000B20FFF703FB3220FFF7EBFA00210F2006
:100E5000FFF7FCFA3220FFF7E4FA00214120FFF708
:100E6000F5FA3220FFF7DDFA00214220FFF7EEFA13
:100E70003220FFF7D6FA00214820FFF7E7FA3220A8
:100E8000FFF7CFFA31464920FFF7E0FA3220FFF7AB
:100E9000C8FA00214A20FFF7D9FA3220FFF7C1FA39
:100EA00000214B20FFF7D2FA3220FFF7BAFA4FF4B5
:100EB0006F414420FFF7CAFA3220FFF7B2FA00214F
:100EC0004520FFF7C3FA3220FFF7ABFA3146462040
:100ED000FFF7BCFA3220FFF7A4FA21463020FFF7D3
:100EE000B5FA3220FFF79DFA39463120FFF7AEFA06
:100EF0003220FFF796FA39463220FFF7A7FA322060
:100F0000FFF78FFA444641463320FFF79FFA32201D
:100F1000FFF787FA40F207513420FFF797FA3220A3
:100F2000FFF77FFA3946352000E0A3E1FFF78EFA9C
:100F30003220FFF776FA39463620FFF787FA32205B
:100F4000FFF76FFA21463720FFF780FA3220FFF7CC
:100F500068FA4C4649463A20FFF778FA3220FFF704
:100F600060FA21463B20FFF771FA3220FFF759FA69
:100F700000212320FFF76AFA3220FFF752FA0021FE
:100F80002420FFF763FA3220FFF74BFA4FF40041B9
:100F90002520FFF75BFA3220FFF743FA00214F20AC
:100FA000FFF754FA00214E20FFF750FA46F258019D
:100FB00011201BE60420107006212820FFF746FAB6
:100FC00001210020FFF742FA4AF6A4610320FFF74F
:100FD0003DFA04210C20FFF739FA0C210D20FFF710
:100FE00035FA4FF420510E20FFF730FAB5211E20BC
:100FF000FFF72CFA43F63F310120FFF727FA4FF4B1
:10100000C0610220FFF722FA00211020FFF71EFA2C
:1010100046F630011120FFF719FA00210520FFF7ED
:1010200015FA00210620FFF711FA4EF61C71162062
:10103000FFF70CFA33210720FFF708FA00210B20F5
:10104000FFF704FA00210F20FFF700FA00214120EA
:10105000FFF7FCF900214220FFF7F8F900214820B2
:10106000FFF7F4F931464920FFF7F0F900214A2053
:10107000FFF7ECF900214B20FFF7E8F94FF46F413F
:101080004420FFF7E3F900214520FFF7DFF931465F
:101090004620FFF7DBF900214E20FFF7D7F90021AA
:1010A0004F20FFF7D3F921463020FFF7CFF95946FB
:1010B0003120FFF7CBF939463220FFF7C7F9434615
:1010C00041463320FFF7C2F940F207513420FFF7C1
:1010D000BDF939463520FFF7B9F900E01AE2394683
:1010E0003620FFF7B3F919463720FFF7AFF94B4623
:1010F00049463A20FFF7AAF919463B20FFF7A6F91F
:1011000000212320FFF7A2F900212420FFF79EF9F8
:101110004FF400412520FFF799F94FF4E0412620D4
:10112000FFF794F94BF2EB012020FFF78FF97C21B8
:1011300027205BE50820107029460120FFF786F97B
:1011400051460220FFF782F941F230010320FFF7F8
:101150007DF900210420FFF779F940F207210820EA
:10116000FFF774F900210920FFF770F900210A2028
:10117000FFF76CF900210C20FFF768F900210D2022
:10118000FFF764F900210F20FFF760F93220FFF725
:1011900048F940F201110720FFF758F93220FFF714
:1011A00040F941F2B0611020FFF750F90121112000
:1011B000FFF74CF901211720FFF748F94FF49C7114
:1011C0001220FFF743F94FF400611320FFF73EF9B7
:1011D00009212920FFF73AF909212A20FFF736F9DA
:1011E0000021A420FFF732F900215020FFF72EF94B
:1011F000EF215120FFF72AF900215220FFF726F9AD
:1012000031465320FFF722F94FF41C516020FFF7BD
:101210001DF903216120FFF719F900216A20FFF76A
:1012200015F900218020FFF711F900218120FFF737
:101230000DF900218220FFF709F900218320FFF733
:1012400005F900218420FFF701F900218520FFF72F
:10125000FDF813219020FFF7F9F800219220FFF705
:10126000F5F803219320FFF7F1F84FF488719520EA
:10127000FFF7ECF840F27311B7E40720107001217A
:101280000020FFF7E3F84FF4C5611020FFF7DEF808
:1012900006211220FFF7DAF840F632211320FFF77B
:1012A000D5F800E0E9E140211120FFF7CFF8502107
:1012B0001520FFF7CBF816211220FFF7C7F83220D0
:1012C000FFF7AFF845F260611020FFF7BFF832205A
:1012D000FFF7A7F842F64E211320FFF7B7F829468B
:1012E0000120FFF7B3F84FF440710220FFF7AEF88A
:1012F00041F230010320FFF7A9F859460820FFF713
:10130000A5F800210A20FFF7A1F800213020FFF7FF
:101310009DF840F202413120FFF798F84FF48371B5
:101320003220FFF793F851463320FFF78FF84FF440
:1013300082713420FFF78AF840F201313520FFF73F
:1013400085F821463620FFF781F840F20531372035
:10135000FFF77CF84FF402713820FFF777F840F67A
:101360000B713920FFF772F83220FFF75AF802218B
:101370004120FFF76BF84FF41C516020FFF766F82F
:1013800001216120FFF762F840F219119020FFF768
:101390005DF84FF485719220FFF758F804219320EF
:1013A000FFF754F82946A020FFF750F83220FFF746
:1013B00038F840F233110720FFF748F83220FFF7E2
:1013C00030F80021A02055E30C20107030211520AA
:1013D000FFF73CF810219A20FFF738F82021112060
:1013E000FFF734F843F228411020FFF72FF80221CD
:1013F0001220FFF72BF841F238011320FFF726F8EF
:101400002820FFF70EF812210846FFF71FF82820C2
:10141000FFF707F843F220411020FFF717F843F2D7
:1014200045011320FFF712F84620FEF7FAFF0021CE
:101430003020FFF70BF840F202413120FFF706F8A9
:1014400040F207313220FFF701F84FF441713320A9
:10145000FEF7FCFF04213420FEF7F8FF40F20141C3
:101460003520FEF7F3FF21463620FEF7EFFF40F26E
:1014700005313720FEF7EAFF4FF4C26319463820E2
:10148000FEF7E4FF19463920FEF7E0FF2946012068
:10149000FEF7DCFF4FF440710220FEF7D7FF41F268
:1014A00030010320FEF7D2FF40F608010820FEF7C6
:1014B000CDFF08210A20FEF7C9FF4FF41C51602020
:1014C000FEF7C4FF01216120FEF7C0FF4FF49F71BA
:1014D0009020FEF7BBFF29469220FEF7B7FF294672
:1014E0009320FEF7B3FF4FF44051A020FEF7AEFF6C
:1014F0001021A320FEF7AAFF01210720FEF7A6FF77
:1015000021210720FEF7A2FF23210720FEF79EFFDF
:1015100033210720AFE0062010700121FF20FEF7E5
:1015200095FF0821F320FEF791FF29460120FEF7E1
:101530008DFF51460220FEF789FF41F23001032062
:1015400000E099E2FEF782FF49460820FEF77EFFA1
:1015500040F207210820FEF779FF00210920FEF75D
:1015600075FF00210A20FEF771FF00211020FEF711
:101570006DFF05211120FEF769FF00211220FEF703
:1015800065FF00211320FEF761FF3220FEF749FFBF
:1015900041F2B0211020FEF759FF3220FEF741FF43
:1015A00007211120FEF752FF3220FEF73AFF8B2170
:1015B0001220FEF74BFF3220FEF733FF4FF4B851F5
:1015C0001320FEF743FF3220FEF72BFF22212920B4
:1015D000FEF73CFF00213020FEF738FF2146312086
:1015E000FEF734FF61463220FEF730FF40F207116C
:1015F0003520FEF72BFF08213620FEF727FF0021BC
:101600003720FEF723FF5B4659463820FEF71EFFC2
:1016100001E035E014E14FF483713920FEF716FF45
:1016200019463C20FEF712FF4FF481613D20FEF782
:101630000DFF3220FEF7F5FE00215020FEF706FFD9
:10164000EF215120FEF702FF00215220FEF7FEFE9F
:1016500031465320FEF7FAFE4FF427416020FEF793
:10166000F5FE01216120FEF7F1FE33219020FEF707
:10167000EDFE0B212B20FEF7E9FE40F23311FBE5D6
:101680000A2010700021EA20FEF7E0FE2021EB2066
:10169000FEF7DCFE0C21EC20FEF7D8FEC421ED2085
:1016A000FEF7D4FE4021E820FEF7D0FE3821E920E5
:1016B000FEF7CCFE0121F120FEF7C8FE1021F2203A
:1016C000FEF7C4FEA3212720FEF7C0FE0121402023
:1016D000FEF7BCFE00214120FEF7B8FE00214220AB
:1016E000FEF7B4FE10214320FEF7B0FE0E21442089
:1016F000FEF7ACFE24214520FEF7A8FE042146207B
:10170000FEF7A4FE50214720FEF7A0FE022148204C
:10171000FEF79CFE13214920FEF798FE19214A206E
:10172000FEF794FE19214B20FEF790FE16214C2067
:10173000FEF78CFE1B215020FEF788FE3121512040
:10174000FEF784FE2F215220FEF780FE3F2153201A
:10175000FEF77CFE3F215420FEF778FE3E21552007
:10176000FEF774FE2F215620FEF770FE7B215720D6
:10177000FEF76CFE09215820FEF768FE062159206D
:10178000FEF764FE06215A20FEF760FE0C215B2066
:10179000FEF75CFE1D215C20FEF758FECC215D208B
:1017A000FEF754FE18211B20FEF750FE01211A20DF
:1017B000FEF74CFE15212420FEF748FE502125207F
:1017C000FEF744FE8B212320FEF740FE3621182031
:1017D000FEF73CFE01211920FEF738FE0021012012
:1017E000FEF734FE88211F20FEF730FE3220FEF780
:1017F00018FE80211F20FEF729FE3220FEF711FE81
:1018000090211F20FEF722FE3220FEF70AFED02193
:101810001F20FEF71BFE3220FEF703FE05211720D6
:10182000FEF714FE00213620FEF710FE3821282096
:10183000FEF70CFE3220FEF7F4FD3C21282019E1D2
:101840000B20107008214220FEF700FEB421462034
:10185000FEF7FCFD43214720FEF7F8FD1321482049
:10186000FEF7F4FD47214920FEF7F0FD14214A2040
:10187000FEF7ECFD36214B20FEF7E8FD03214C205E
:10188000FEF7E4FD46214D20FEF7E0FD05214E2048
:10189000FEF7DCFD10214F20FEF7D8FD0821502077
:1018A000FEF7D4FD0A215120FEF7D0FD00210220D1
:1018B000FEF7CCFD00210320FEF7C8FD0021042027
:1018C000FEF7C4FDEF210520FEF7C0FD0021062034
:1018D000FEF7BCFD00210720FEF7B8FD012108201E
:1018E000FEF7B4FD3F210920FEF7B0FD0A20FEF708
:1018F00098FD06210120FEF7A9FDC8211620FEF75C
:10190000A5FD95212320FEF7A1FD95212420FEF7BA
:101910009DFDFF212520FEF799FD02212720FEF7DE
:1019200095FD02212820FEF791FD02212920FEF7D6
:101930008DFD02212A20FEF789FD02212C20FEF7D1
:1019400085FD02212D20FEF781FD01213A20FEF7C1
:101950007DFD01213B20FEF779FDF0213C20FEF7C3
:1019600075FD00213D20FEF771FD1420FEF759FDA5
:1019700038213520FEF76AFD78213620FEF766FD16
:1019800038213E20FEF762FD0F214020FEF75EFD6C
:10199000F0214120FEF75AFD00213820FEF756FDC8
:1019A00049211920FEF752FD0A219320FEF74EFD32
:1019B0000A20FEF736FD20210846FEF747FD0321E9
:1019C0001D20FEF743FD00211E20FEF73FFD0921EB
:1019D0001F20FEF73BFD53214420FEF737FD102169
:1019E0004520FEF733FD0A20FEF71BFD04211C20D5
:1019F000FEF72CFD1420FEF714FD80214320FEF796
:101A000025FD0520FEF70DFD0A211B20FEF71EFD1A
:101A10002820FEF706FD12211B20FEF717FD2820C7
:101A2000FEF7FFFC7F219020FEF710FD0421262009
:101A3000FEF70CFD2820FEF7F4FC24212620FEF7FB
:101A400005FD2C212620FEF701FD2820FEF7E9FCEC
:101A500008217020FEF7FAFC3C212620FEF7F6FC58
:101A600002215720FEF7F2FC00215520FEF7EEFC84
:101A700000215720FEF7EAFCBDE8F05F3220FEF7B8
:101A8000D0BCA0F23F10404283B2CB4800B50078F2
:101A900005280BD02020FEF7D9FC19462120FEF79F
:101AA000D5FC4FF0DA412220088000BD4E20FEF721
:101AB000CDFC19464F205DF804EBFEF7C7BC70B5AE
:101AC0000546BD48002400780A2811D00B280FD005
:101AD00000210846FFF7D5FF4FF0DA4122200880A9
:101AE000B6484FF496310580641C8C42FBD370BD20
:101AF00000210220FEF7AAFC00210320FEF7A6FC2D
:101B000000210420FEF7A2FCEF210520FEF79EFC39
:101B100000210620FEF79AFC00210720FEF796FC24
:101B200001210820FEF792FC3F210920FEF78EFCE0
:101B3000D2E710B5FFF7A5FF4FF0DA412220088069
:101B40009D4801789D48091F092917D2DFE801F057
:101B5000050505051616080805000188008810BD52
:101B60000188C1F3C70201880088C908C0F3870053
:101B7000C90241EA4010104380B210BD01880088BC
:101B8000C0F34511C20AC00200EB41101044F3E754
:101B900010B51446B0F5A07F09D2F02907D2FFF79F
:101BA00070FF2146BDE810402220FEF74FBC10BD5B
:101BB0002DE9F0471F46904689460646089D0DE0F0
:101BC0004C4607E035F8022B21463046FFF7E0FF90
:101BD000641CA4B2BC42F5D3761CB6B24645EFD322
:101BE000BDE8F0872DE9F04705469146DDF820A0D5
:101BF00098460C4610464D4501D9A94685B218466F
:101C0000444501D9884684B2A9EB0500A8EB04013C
:101C100000B20EB250B19EB1B0422FDDC0EB460112
:101C20000FB27100404201EB400824E052462146C9
:101C30002846FFF7ADFF641CA4B2A045F6D2CFE75B
:101C4000524621462846FFF7A3FF6D1CADB2A945B9
:101C5000F6D2C5E7524621462846FFF799FF6D1C8C
:101C6000ADB2002F04DD641CA4B208EB070001E054
:101C700007EB460007B24D45ECD11AE0C6EB400138
:101C80000FB27100404201EB400910E0524621467C
:101C90002846FFF77DFF641CA4B2002F04DD6D1CF5
:101CA000ADB209EB070001E007EB460007B244457F
:101CB000ECD1524621462846BDE8F04768E72DE9B9
:101CC000FF5F894607469B461146684600F078F854
:101CD0000025EA4600241AF8058009EB0506C4F140
:101CE000070128FA01F0C00707EB0400B1B280B287
:101CF00001D05A4600E00E9AFFF74AFF641CA4B2D6
:101D0000082CECD36D1CADB2102DE3D3BDE8FF9FC2
:101D10002DE9F8439946089F16460D4604464FF4B0
:101D20009C7816F8012BA2F120005F2815D24B46B3
:101D3000294620460097FFF7C2FF444502D20834E7
:101D4000A4B207E0E02D4FF0000402D21035ADB28E
:101D500000E0002530780028E3D1BDE8F8834FF09B
:101D6000DA4122200880704700B597B00620009025
:101D700000201021CDE90201049009020190CDE973
:101D80000801069007900A900FA905900F220B906A
:101D9000CDE90C01CDE90F20CDE91120139014906D
:101DA00015900E91684603F044FA0121062003F0D5
:101DB000D5FA17B000BD0000000000200000016D42
:101DC000034A02EB01111022A1F5007104F070B971
:101DD000406B00082DE9F04387B00121022003F099
:101DE0006BFE0121042003F067FE4FF480480121BF
:101DF000404603F07FFEFF4F05220D21384603F0D9
:101E000017FD05220E21384603F012FD05220F2191
:101E1000384603F00DFD4FF40050009002208DF87D
:101E2000040003268DF8056000248DF80640012586
:101E30008DF807506946384603F086FC69463846F7
:101E4000CDF8008003F080FCE80300906946384636
:101E500003F07AFC8DF8045010208DF80640DFF86E
:101E6000989300908DF805608DF8075069464846B4
:101E700003F06AFC8DF804408DF8064020278DF8A9
:101E8000056000978DF807506946484603F05CFCF2
:101E90001021484603F0BDFC0121404603F02AFE14
:101EA000D64D284603F0CEFEADF808404FF48270C0
:101EB000ADF80A00ADF810406815ADF81200072023
:101EC000ADF80C40ADF81470ADF81800ADF80E4048
:101ED000ADF8164002A9284603F0D8FE0121284695
:101EE00003F063FF07B0BDE8F08370B5C34D022176
:101EF000284603F0EDFF0028F9D00021284603F022
:101F0000BAFF0121284603F0E3FF0028F9D0284654
:101F100003F0AFFF4FF6FF7101EA0024012000F04B
:101F200007FB0221284603F0D3FF0028F9D0002147
:101F3000284603F0A0FF0121284603F0C9FF00282E
:101F4000F9D0284603F095FF0443C4F3CB0070BDDD
:101F500070B5A94C1021204603F05DFC012000F073
:101F6000E7FA902000F0F1FA012000F0E1FAFFF723
:101F7000BCFF05461021204603F04BFC284670BDEF
:101F800070B59D4C1021204603F045FC012000F067
:101F9000CFFAD02000F0D9FA012000F0C9FAFFF7FB
:101FA000A4FF05461021204603F033FC284670BDEF
:101FB00070B50D460646FFF7CBFF0446012000F042
:101FC000B7FAFFF7DDFF3460286070BD2DE9F041FE
:101FD00017460E460546FFF7DBFD6C1CA0B23A46DD
:101FE0003146FFF7D5FD761CB1B23A462846FFF7D9
:101FF000CFFDB1B2A0B23A46BDE8F041FFF7C8BD8F
:102000002DE9FC5F8146801E4FF6FF7482B2A9F174
:102010000F078846B8B20B460094FFF7E3FD09F1BD
:102020000F0609F102004346B2B280B2194600948D
:10203000FFF7D8FDA8F1020083B2A8F10F054A46C8
:10204000A9B210460094FFF7CDFD009408F10200FC
:1020500008F10F0481B24A46A3B21046FFF7C2FD51
:102060004BF6F04AA9F1070BA3B21FFA8BF2A1B20B
:10207000B8B2CDF800A0FFF7B5FD08F10700CDE933
:1020800000A081B2A3B2BAB2B8B2FFF7ABFDABB257
:102090001FFA8BF2A9B2B8B2CDF800A0FFF7A2FDEB
:1020A000A8F10708ABB2BAB21FFA88F1B8B2CDF8FE
:1020B00000A0FFF797FD1637A3B2B2B2A1B2B8B233
:1020C000CDF800A0FFF78EFD0198A3B281B2B2B2A5
:1020D000CDF800A0B0B2FFF785FDABB2B2B2A9B2A5
:1020E000B8B2CDF800A0FFF77DFD1FFA88F3B2B2B9
:1020F000A9B2B0B2CDF800A0FFF774FDBDE8FC9F17
:10210000F0B595B000244821684603F0EAFF3A4E46
:102110006D4613A912A8FFF74BFF129845F824004B
:1021200005EB840113984862641CE4B22021304618
:1021300003F05BFB08B9092CEBD3092C7AD1DDE95C
:1021400000010844029903270844DDE90312114401
:10215000059A90FBF7F0114491FBF7F2DDE90613C5
:102160001944089B841A194491FBF7F1551A0E1A69
:10217000002C00DC6442002D00DC6D42002E00DCEF
:102180007642022C03DD022D01DD022E52DC1C4BB7
:10219000AC4205DAA64201DA084404E0104402E049
:1021A000AE42F9DB501800EBD07040081880DDE932
:1021B000090108440B990844DDE90C1211440E9AF8
:1021C00090FBF7F0114491FBF7F2DDE90F14214485
:1021D000119C214491FBF7F1841A551A0E1A002C18
:1021E00000DC6442002D00DC6D42002E00DC7642F3
:1021F000022C07E0000402400008024000380040C2
:102200000400002003DD022D01DD022E12DCAC42B1
:1022100006DAA64201DA084405E0104403E009E0CA
:10222000AE42F8DB501800EBD07040085880D3481D
:1022300015B0F0BD0020FBE72DE9F0470C46054640
:102240000988208916460A1AE388618901275B1AE2
:102250005A43A388C01A6388591A00FB012004F06E
:10226000E3F841EC100B86ED0C0B9FEDC51B53EC16
:10227000112B04F011F901D1002781E02988288968
:10228000E3880A1A61895B1A5A43AB88C01A6388CB
:10229000591A00FB012004F0C7F8C6E900012188A3
:1022A0002089AB880A1A29895B1A5A432B88C91AD4
:1022B000A388181A01FB002004F0B6F8C6E9020151
:1022C000A9882389894603FB01F0A288298902FB9A
:1022D000110C60880CFB00FC208800FB01F82988A9
:1022E00003FB1183B4F806804A4303FB08C300FBD9
:1022F0001920618900FB013004F096F8C6E9040159
:1023000069886889E3880A1A61895B1A5A43EB88ED
:10231000C01A6388591A00FB012004F085F8C6E949
:10232000060121882089EB880A1A69895B1A5A43B9
:102330006B88C91AA388181A01FB002004F074F8EE
:10234000C6E908012289B5F80680A1886B8902FBDD
:1023500008F001FB130C60886D880CFB00FC2088E2
:102360006943434302FB1532E38800FB181002FB6C
:1023700003C2618900FB012004F056F8C6E90A0196
:102380003846BDE8F0872DE9F04114462DED028B6B
:102390000D4692ED0C0B074601269FED791B51EC83
:1023A000100B53EC112B04F077F84ED0688804F032
:1023B0004CF894ED021B53EC112B03F054FF41EC4D
:1023C000180B288804F041F894ED001B53EC112BF6
:1023D00003F049FF53EC182B03F09EFE94ED041B11
:1023E00053EC112B03F098FE94ED0C1B53EC112BC6
:1023F00003F0ABFF04F036F83880688804F025F865
:1024000094ED081B53EC112B03F02DFF41EC180B3E
:10241000288804F01AF894ED061B53EC112B03F0F6
:1024200022FF53EC182B03F077FE94ED0A1B53ECBC
:10243000112B03F071FE94ED0C1B53EC112B03F0E8
:1024400084FF04F00FF8788000E00026BDEC028BDA
:102450003046BDE8F0812DE9F843054600244FF4ED
:1024600078484FF496774FF6FF760020FFF727FB6A
:10247000434645A20A212C200096FFF749FC002183
:102480000020401C80B2B042FBD3491C89B2B94243
:10249000F6D33A48001D00EB840130F82400498847
:1024A000FFF7AEFDFFF72CFE0028FBD03E49028867
:1024B00021F8242001EB840142884A80018825F814
:1024C000241005EB8402418851804388028821460C
:1024D00036A004F0CBF8641CE4B2032CC5D3324A16
:1024E0002648383A3049001DFFF7A6FEBDE8F843FC
:1024F0000020FFF7E4BA10B52B4A002102EB81045B
:1025000030F8213022F8213000EB8103491C5B8830
:10251000C9B263800329F1D3234A1848383A2249C3
:10252000001DFFF789FEBDE810400020FFF7C7BA85
:1025300001B5002105E00C20401EC0B2FCD2491CB0
:1025400089B200988142F6D308BD70B51D4C05468E
:102550000221204603F0BCFC0028F9D02946204681
:1025600003F089FC0121204603F0B2FC0028F9D0D9
:102570002046BDE8704003F07CBC00000400002051
:102580000000000000000000546F75636820637253
:102590006F73736861697220746F2063616C696224
:1025A000726174650000000080000020693A2025F7
:1025B000643B20783A2025643B20793A2025643B0F
:1025C0000A000000003800401CB5334C07220921E6
:1025D000204603F02DF90221080200908DF8041026
:1025E00003208DF8050000218DF806108DF80710E6
:1025F0006946204603F0A8F828485B2101818189BB
:1026000042F208021143818125A004F02FF81CBD7D
:10261000224904E00B881B06FCD58A80401C027806
:10262000002AF7D1704703B56846FFF7F1FF00981D
:102630000CBD70B50D46064600240BE0200703D103
:1026400014B11BA004F012F8315D1AA004F00EF8CA
:10265000641CA4B2AC42F1D3BDE8704017A004F0F2
:1026600005B870B50D46064600240CE0A00703D15E
:1026700014B10FA003F0FAFF56F8241017A003F0CE
:10268000F5FF641CA4B2AC42F0D3BDE8704015A0C5
:1026900003F0ECBF70470000000002400010014052
:1026A000446562756720496E6974204F6B210A008A
:1026B0000A00000025303258200000000A2D2D2D80
:1026C0002D2D2D2D2D2D2D2D2D2D2D2D2D2D2D2D3A
:1026D0002D2D2D2D2D2D2D0A0000000025303858D0
:1026E000200000000A2D2D2D2D2D2D2D2D2D2D2DD1
:1026F0002D2D2D2D2D2D2D2D2D2D2D2D2D2D2D2D0A
:102700002D2D2D2D0A00000030B50722A0FB02352B
:1027100001FB0251002400FB04115B1E41F1FF315B
:10272000DA4372EA0102F8D130BD30B541F65832D1
:10273000A0FB023501FB0251002400FB04115B1ECB
:1027400041F1FF31DA4372EA0102F8D130BD0000F5
:1027500010B564200021FFF7E8FF08480168084A27
:1027600011430160054810300168064A11430160B9
:10277000001D0168044A1143016010BD3038024059
:10278000FF016000FF010200135107000022134601
:1027900001E08354521C8A42FBD3704770B58048D5
:1027A000016800291ED0002101607F487D4D0C4644
:1027B0000068401C02D00B2000F074F943F2A9001D
:1027C00014FB00F005EB80004CF2A422774900F0E6
:1027D00097F977482146D0F89C22BDE8704075A053
:1027E00003F044BF70BD2DE9F0474CF2A4216F48BF
:1027F000FFF7CCFF18216A48FFF7C8FF0025DFF874
:10280000ACA1A846012642F2107940F29F1005FBC8
:1028100000F10AEB810404F5CD6726606FA138460C
:1028200003F071FC3A4610462B466EA103F02EFFD2
:102830006D1C05EB8500256140006060C5EB05104F
:10284000A060C5EB05104000E060C4F82463C4F844
:102850003083C4F82883C4F82C8305EB8500C4F8C2
:1028600040638000C4F8340305EBC50000EB05109D
:10287000C4F8380305EB8500C000C4F83C03C4F875
:102880005466C4F860864146C4F85886C4F85C169D
:10289000ADB2C4F864960E2DB7D3544C54A104F5D0
:1028A000CD602660054603F02EFC2A4653A1104653
:1028B00003F0ECFE26610A2363601E25E56002201A
:1028C0002062142262613C21E161C4F82403C4F84F
:1028D0003083C4F82883C4F82C83C4F84063C4F858
:1028E00034233222C4F83C23C4F85003C4F84433E0
:1028F000C4F84C230323C4F86033C4F8545304F2DF
:102900005460C4F85C2341460360C160416081604B
:10291000C0F810903B483A4A026045F2AA52C260A1
:102920004160816038A003F0A1FE1D480660BDE84B
:10293000F04733E7704770B54FF4003136A003F02D
:1029400095FE0024174D214637A003F08FFE43F279
:10295000A90014FB00F005EB8001144A00204CF2A2
:10296000A4230C5C1454401C9842FAD3BDE8704078
:1029700035A003F07BBE10B537A003F077FEFFF75C
:10298000DAFF0B48D0F8A002A0F5AA41AA3901D07D
:10299000FFF729FFBDE8104035A003F067BE000037
:1029A00030C3002000000E089CC20E088C000020DE
:1029B0008CC0002053657474205361766520706F5D
:1029C000733A20272564272C2069643A2027256440
:1029D00027202D204F6B210A0000000047552D3085
:1029E000312800002573256429000000545B002075
:1029F0004675636B204D65210000000025730000C3
:102A0000F56C857820C3002053657474204E756C76
:102A10006C204F6B210A0000736574745F6C6F61EA
:102A2000643A202564200A0053656172636820734C
:102A3000657474696E6720706F736974696F6E2056
:102A40003D2025643B0A000053657474204C6F617F
:102A500064204F6B210A000053657474696E67200F
:102A6000496E69742053746172742E2E2E0A000010
:102A700053657474696E6720496E6974204F6B21C9
:102A80000A00000032480168C903FCD43048001D28
:102A90000068002805DA2E482E49083801602E49C2
:102AA000016070472D4B00B50246188820F00400E5
:102AB000188072B6FFF7E6FF2549091D086840F047
:102AC00002000860086820F078000860086840EAA2
:102AD000C2000860086840F480300860081F02687F
:102AE000D203FCD40268D20701D0012202604FF069
:102AF0000040086062B6188840F00400188000BDED
:102B0000F0B50F460546FFF7BDFF114C0023201D11
:102B1000012115E02668F603FCD4066846F001069C
:102B20000660FE5CEE542668F603FCD42668F607C1
:102B300000D02160066826F0010606605B1C9BB28F
:102B40009342E7D3016841F000410160F0BD00000D
:102B50000C3C024023016745AB89EFCD0C4400409B
:102B60000020FE49FE4B08808882C8808880088447
:102B700040F29F12424303EB82021268002A06D001
:102B8000CA88401C521C80B2CA801E28F0D37047ED
:102B90002DE9F04707460D46861801EB0308DDF8DE
:102BA00020900CE03C4606E04A4629462046FEF7C7
:102BB000EFFF641CA4B2A642F6D86D1CADB2A845C6
:102BC000F0D8BDE8F087F8B506461F2000901F46F4
:102BD00014460D463046FFF7DBFF4FF2DE700090E3
:102BE000201F82B205F118001A3F81B2B61CBBB299
:102BF000B0B2FFF7CDFFA81C81B24FF4784604F1C4
:102C00000800142380B21A460096FFF7C1FF2D1D5D
:102C10000E34A9B2A0B24FF6FF73D2A20096FFF70E
:102C200077F8F8BD2DE9F0479946831A8E189DB2C2
:102C3000A1EB020887180DE01FFA88F406E04A4667
:102C400021462846FEF7A4FF641CA4B2A642F6D88B
:102C50006D1CADB2AF42EFD8B3E72DE9F84F4FF698
:102C6000E074192350220021F0200094FFF790FF18
:102C70000023BDA20421FC200094FFF749F8B74FC0
:102C80000626B988F888491C01EB4101B0EB410FD9
:102C900004D2C0EB4100C0F1060086B20024A04679
:102CA0002325C4EB041005EB400081B2142350220D
:102CB000F020CDF80080FFF76BFF641CA4B2062C57
:102CC000EFD30024DFF898A24FF0250B2FE0B8884F
:102CD000B98A00EB400004EB4000814202D14FF67C
:102CE0001F0901E047F6FF79C4EB041805EB480023
:102CF00081B214235022F020CDF80090FFF748FF56
:102D0000CDF80090B88840F29F1100EB400004EB32
:102D1000400048430AEB80020BEB480081B20023DD
:102D2000F02002F26962FEF7F3FF641CA4B2B44221
:102D3000CDD34FF6E07419235022D721F020009410
:102D4000FFF726FF00238AA2DB21F5200094FEF77F
:102D5000DFFFBDE8F88F7FB54FF6E07414231A4605
:102D6000DC2100200094FFF713FF002383A2DE2163
:102D700005200094FEF7CCFF47F6FF7514233C2294
:102D8000DC2118460095FFF703FF74487CA10288F8
:102D900001A8521C03F07AFC002301AADE211920AD
:102DA0000095FEF7B5FF14231A46DC21502000944D
:102DB000FFF7EEFE002374A2DE2155200094FEF7FB
:102DC000A7FF7FBD30B442F210720A23914207D2AE
:102DD000B1FBF3F2B1FBF3F403FB14136BA10AE0B4
:102DE000B1FBF2F24FF47A74B1FBF4F1B1FBF3F4FE
:102DF00003FB141367A130BC03F048BC012902D0C7
:102E000066A103F043BC66A1FBE7012902D065A1DE
:102E100003F03CBC65A1FBE713460A4665A103F03D
:102E200035BC2DE9FF474FF4FC6700211423322203
:102E300008460097FFF7ACFE0221002360A2084677
:102E40000097FEF765FF4FF6E07614233222152136
:102E500000200096FFF79CFE404C208800287AD086
:102E600058A101A803F012FC002301AA1721022097
:102E70000096FEF74DFF4FF6E055142332222A212B
:102E800000200095FFF784FE2088002864D04FA121
:102E900001A803F0FBFBA846002301AA2C21022075
:102EA0000095FEF735FF14233C22002133200097C4
:102EB000FFF76EFE002347A2022137200097FEF79E
:102EC00027FF14233C22152133200096FFF760FED4
:102ED000208840F29F110028A08A214D00FB01F0BC
:102EE000A16905EB800000EB011036D0816801A8D4
:102EF000FFF768FFB146002301AA1721352000968D
:102F0000FEF706FF464614233C222A213320CDF843
:102F10000080FFF73DFE208840F29F110028A08A24
:102F200000FB01F0E16905EB800000EB01107DD0B2
:102F3000D0F8381301A8FFF745FF002301AA2C2180
:102F400035200096FEF7E4FE14233C220021B8460B
:102F50007020009742E0D1E0D2E0D3E0C8EF00203B
:102F60008C000020580000005061676520557000FB
:102F70005061676520446F776E0000003C000000E0
:102F80004D656E75202564003E00000025642E25E9
:102F90006475730025642E25646D73004F666600AA
:102FA0004F6E00005374726169672E00526576653A
:102FB0007273650050756C73652025642F2564005D
:102FC00000000000434831283229000043483228DD
:102FD0003229000044757261742E0000FFF7D8FD9D
:102FE0000023FEA202217620CDF80080FEF790FE9D
:102FF0004F4614233C2215217020CDF80090FFF796
:10300000C7FDA08A40F29F114843A16905EB8000EB
:1030100000EB0110C16801A8FFF7D4FE002301AA4C
:10302000172172200097FEF773FE00E06CE0142376
:103030003C222A2170200096FFF7AAFDA08A40F2C8
:103040009F114843E16905EB800000EB0110D0F8C7
:103050003C1301A8FFF7B6FE002301AA2C21722021
:103060000096FEF755FE14233C220021AD20CDF83A
:103070000080FFF78DFD0023DAA20221B220CDF8F7
:103080000080FEF745FE14233C221521AD20009759
:10309000FFF77EFDA08A40F29F114843A16905EB2E
:1030A000800000EB0110D1A1026901A803F0EEFA43
:1030B000002301AA1721C1200097FEF729FE14233F
:1030C0003C222A21AD200096FFF762FDA08A40F243
:1030D0009F114843E16905EB800000EB0110C3A19B
:1030E000D0F8402301A803F0D1FA002301AA2C2133
:1030F000C1200096FEF70CFEBDE8FF87BCA1B0E63C
:10310000BDA1C5E64168F2E6D0F8341312E72DE917
:10311000FF414FF4FC651423322246210020009524
:10312000FFF736FD0023AFF2681248210220009518
:10313000FEF7EEFD4FF6E074142332225B210020EF
:103140000094FFF725FDAE4E4FF000033088009449
:1031500000287DD0AFF294125D210220FEF7D8FD49
:103160004FF6E05714233222702100200097FFF71A
:103170000FFD30884FF000030028009769D0AFF2B0
:10318000B41272210220FEF7C3FD14233C22462113
:1031900033200095FFF7FCFC00239AA2482143202E
:1031A0000095FEF7B5FDA04614233C225B21332099
:1031B0000094FFF7EDFCB08A40F29F11934C484316
:1031C00004EB8000D0F8301301A8FFF7FBFD0023CB
:1031D00001AA5D213520CDF80080FEF799FD14236A
:1031E0003C22702133200097FFF7D2FCB08A40F2D6
:1031F0009F11484304EB8000D0F8601601A8FFF748
:10320000E1FD002301AA722135200097FEF780FD21
:1032100014233C22462170200095FFF7B9FC0023BF
:103220007BA2482175200095FEF772FD14233C22F5
:103230005B217020CDF80080FFF7AAFC308840F2B7
:103240009F110028B08A00FB01F004EB800001E030
:1032500072E073E074D0D0F82C1301A8FFF7D5FD0D
:10326000002301AA5D217220CDF80080FEF750FDF9
:10327000702114233C2208460097FFF789FC308810
:1032800040F29F110028B08A00FB01F004EB80009F
:1032900059D0D0F85C1601A8FFF7B7FD72210023C2
:1032A00001AA08460097FEF733FD14233C2246216D
:1032B000AD200095FFF76CFC002357A24821B220F7
:1032C0000095FEF725FDB0463088554E4FF47847FF
:1032D00080B3F16801A8FFF791FDF06801283BD0A9
:1032E0003C4614233C225B21AD200094FFF750FCA8
:1032F000002301AA5D21BF200094FEF709FDB8F864
:10330000000058B3716901A8FFF778FD70690128C2
:1033100000D03D4614233C227021AD200095FFF7DC
:1033200037FC002301AA7221BF200095FEF7F0FCB4
:10333000BDE8FF810AE003E02DA20DE72EA220E701
:10334000D0F8281389E7D0F85816A4E7B16801A887
:10335000FFF754FDB068C1E72C46C2E7316901A808
:10336000FFF74CFD3069D2E72DE9FF474FF6E074D7
:10337000142332228C2100200094FFF709FC002343
:1033800028A28E210D200094FEF7C2FC4FF6E055D6
:1033900014233222A12100200095FFF7F9FB00231E
:1033A00021A2A3210D200095FEF7B2FC14231A469A
:1033B0008C2133200094FFF7EBFB0023AFF2444253
:1033C0008E2138200094FEF7A3FC47F6FF781423E3
:1033D00064228C214720CDF8008027E05065726977
:1033E0006F640000416D6F756E740000256400000D
:1033F0004348312831290000434832283129000050
:10340000C8EF002042696173000000008C000020BA
:10341000506F6C61722E00004F6E2F4F6666000079
:1034200030C300204348310043483200FFF7B0FB6F
:10343000FE4E40F29F11DFF8F893B08A484309EB43
:103440008000B169D0F8242301A8491CFFF7E4FCEF
:10345000002301AA8E214C20CDF80080FEF758FCF5
:1034600014231A468C21AB200094FFF791FB002314
:10347000AFF2EC428E21B0200094FEF749FC4FF4ED
:10348000FC6414231A468C21C0200094FFF780FBB3
:103490000023E8A28E21C5200094FEF739FC4FF4EA
:1034A000784714231A468C21D5200097FFF770FB2C
:1034B0000023E1A28E21DA200097FEF729FC1423D5
:1034C0001A46A12133200095FFF762FB0023AFF2DB
:1034D0005452A32138200095FEF71AFC14236422CD
:1034E000A1214720CDF80080FFF752FBB08A40F2BF
:1034F0009F11484309EB8000F169D0F8542601A8D8
:10350000491CFFF789FC002301AAA3214C20CDF818
:103510000080FEF7FDFB14231A46A121AB20009585
:10352000FFF736FB0023AFF2A052A321B020009595
:10353000FEF7EEFB14231A46A121C0200094FFF7EA
:1035400027FB0023BBA2A321C5200094FEF7E0FBCC
:1035500014231A46A121D5200097FFF719FB002359
:10356000B5A2A321DA200097FEF7D2FBC4E51FB570
:103570004FF4FC6414235A22BE2100200094FFF76C
:1035800007FB0023ADA2C02104200094FEF7C0FB7E
:103590004FF6E07414234622BE215B200094FFF70F
:1035A000F7FAA24840F29F11808A4843A04901EBF4
:1035B0008000D0F8641601A8FFF704FC002301AADC
:1035C000C0215F200094FEF7A3FB1FBD38B54FF666
:1035D000FF7414232822DC2164200094FFF7D8FA1A
:1035E000002399A2DE2164200094FEF791FB4FF4A2
:1035F0007840142300901A46DC218C20FFF7C8FA8B
:103600004FF6E050142300901A46DC21A020FFF76B
:10361000BFFA4FF6E070142300901A46DC21B42064
:10362000FFF7B6FA4FF4FC60142300901A46DC2131
:10363000C820FFF7ADFA1F201423DC2100901A46A2
:103640000846FFF7A5FA4FF61F00142300901A460C
:10365000DC21F020FFF79CFA6010142300901A463A
:10366000DC214FF48270FFF793FA14231A46DC2111
:103670004FF48C700094FFF78BFA00201423009015
:103680001A46DC214FF49670FFF782FA38BD1FB559
:103690000020009018234A224E218020FFF778FA5C
:1036A0004FF6FF7414234622502182200094FFF726
:1036B0006FFA5E4890F82510806A69B1AFF2D421A4
:1036C000026801A802F0E2FF002301AA5021842031
:1036D0000094FEF71DFB1FBD016801A8FFF772FBF8
:1036E000F2E7F8B5FFF737FB00201E210090B42366
:1036F0004FF482720846FFF766FAFFF7C8FF4FF6ED
:10370000E05523221E237D2110460095FFF740FA45
:1037100000234FA2892130200095FEF7F9FA2322D9
:1037200014239C2110460095FFF732FA3F4E4FF0CC
:10373000000396F825000095002875D045A29E212B
:103740003020FEF7E5FA23221E23B1211046009512
:10375000FFF71EFA002340A2B72130200095FEF7A4
:10376000D7FA4FF6E0741E2323227D2147200094D0
:10377000FFF70EFA002336A2892154200094FEF7A9
:10378000C7FA142323229C2147200094FFF700FA54
:1037900096F825004FF000030028009445D02FA292
:1037A0009E214F20FEF7B4FA1E232322B121472089
:1037B0000094FFF7EDF9002327A2B72154200094CD
:1037C000FEF7A6FA1E2323227D216B200095FFF72A
:1037D000DFF900231EA2892178200095FEF798FAD0
:1037E000142323229C216B200095FFF7D1F996F832
:1037F00025004FF00003002800957DD018A29E21DF
:103800006F20FEF785FA1E232322B1216B2000953D
:10381000FFF7BEF9002310A2B72178200095FEF72C
:1038200077FA96F825001DE0FBE0FEE0C8EF0020E7
:103830008C000020410000004400000050657269C7
:103840006F6420416C6C0000436C65617200000085
:103850005E00000031000000760000003130000002
:103860003130300000287DD11E2323227D218F207E
:103870000094FFF78DF90023AFF22C0289219C20E0
:103880000094FEF745FA142323229C218F200094F4
:10389000FFF77EF90023AFF238029E2193200094B7
:1038A000FEF736FA1E232322B1218F200094FFF762
:1038B0006FF90023AFF26002B7219C200094FEF75D
:1038C00027FA1E2323227D21B3200095FFF760F9FC
:1038D0000023AFF284028921C0200095FEF718FA78
:1038E000142323229C21B3200095FFF751F90023D4
:1038F000AFF2A0029E2100E09CE0C0200095FEF700
:1039000007FA1E232322B121B3200095FFF740F9C7
:103910000023AFF2BC02B721C0200095FEF7F8F9F2
:103920001E2323227D21D7200094FFF731F90023A5
:10393000AFF2E4028921E4200094FEF7E9F91423B0
:1039400023229C21D7200094FFF722F90023AFF215
:10395000F4029E21DF200094FEF7DAF91E232322D1
:10396000B12100E05CE0D7200094FFF711F90023BB
:10397000AFF21C12B721E4200094FEF7C9F91E2310
:1039800023227D21FB200095FFF702F90023AFF2EF
:1039900040124FF48474892120460095FEF7B8F94F
:1039A000142323229C21FB200095FFF7F1F800232C
:1039B000AFF254129E21FF200095FEF7A9F91E23B5
:1039C0002322B121FB200095FFF7E2F80023AFF29C
:1039D0007812B72120460095FEF79AF996F825004F
:1039E00000281DD14FF4FC6414238F226921232069
:1039F0000094FFF7CDF800237DA26C216120009494
:103A0000FEF786F914236B226921B3200094FFF797
:103A1000BFF8002377A26C21E1200094FEF778F92B
:103A2000F8BD9E2174A228208BE6AFF2D8129E2109
:103A30005420B7E6AFF2DC129E217320E1E62DE9B7
:103A4000FF414FF4FC6400211423642208460094D3
:103A5000FFF79EF80221002368A208460094FEF7B3
:103A600057F914236422002165200094FFF790F891
:103A70006548009440F29F11808A002348436349BF
:103A800001EB80020221672002F26962FEF740F931
:103A90004FF47845142364220021DC200095FFF7C1
:103AA00077F800235AA20221DE200095FEF730F9B4
:103AB00014236E22192100200094FFF769F80023D7
:103AC00057A21B2102200094FEF722F920208DF836
:103AD000040000208DF80500054600249DF8040030
:103AE0007F2824D2C5EBC50000EB400707F1350065
:103AF00081B2C4EBC40000EB40064FF6E07806F15B
:103B00000F00142380B21A46CDF80080FFF740F86A
:103B100036371536B9B2B0B2002301AACDF800800D
:103B2000FEF7F6F89DF80400401C8DF80400641CB4
:103B3000A4B20E2CD2D36D1CADB2072DCDD34FF64F
:103B4000E05414233E22B321F6200094FFF720F81E
:103B5000002337A2B4214FF480700094FEF7D8F808
:103B60004FF6FF7414233C22DC21A0200094FFF7C1
:103B70000FF8002330A2DE21AC200094FEF7C8F835
:103B8000BDE8FF8138B5204D2888052825D2DFE81B
:103B900000F003030E112200FFF743F9FFF7B7FA15
:103BA000FFF7E2FBFFF759F8FFF7E1FC15E0FFF73D
:103BB0000DFD12E04FF6FF7432216423DC2208462B
:103BC0000094FEF7E5FF00231DA25A216420009413
:103BD000FEF79EF801E0FFF732FFFFF7BCF895F81B
:103BE0002400002802D0BDE838407AE538BD000046
:103BF000757300006D730000302E31004E616D65ED
:103C00002070726F672E3A00C8EF00208C000020F1
:103C100044656C6574652070726F672E000000004B
:103C2000416464206E65772070726F672E0000001B
:103C3000426373702E00000053617665000000003F
:103C400043616C69627261746520546F7563683F8B
:103C50000000000010B56BA002F008FDBDE81040A8
:103C60006EA002F003BD10B501224260002341B1F5
:103C7000A82240F6AC544A43A14204D203600A2170
:103C80001EE003601FE048F6B803994203D2092101
:103C90000160642114E0664B994204D26321016003
:103CA0004FF47A710CE0634B994205D240F2E73150
:103CB000016042F2107103E042F20F7101605E494F
:103CC000B2FBF1F14160006810BD542210B5002331
:103CD0004A43B1F52F7F02D20360426025E041F6EE
:103CE0005834A14202D203600A211BE0534B99428F
:103CF00003D209210160642114E0514B994204D29E
:103D0000632101604FF47A710CE04E4B994205D269
:103D100040F2E731016042F2107103E042F20F71AC
:103D200001604549B2FBF1F14160006810BD2DE929
:103D3000F00300231E4699462AE0002501EB0612F7
:103D400021E0946854277C430A27B4FBF7FC03EB7B
:103D5000830400EB84044FF05408C4F804C0D2F884
:103D600000C06D1C0CFB08FCBCFBF7FCC4F80CC0CD
:103D7000D2F804C0ADB20CFB08FCBCFBF7F727611E
:103D8000C4F808905B1CD468AC42DAD8761CB6B292
:103D9000D1F82023B242D0D80024C0F8A83F4D4625
:103DA00001261A1902EB820200EB8202641C1560E4
:103DB0005660D560156124B29560022CF1DBD1F814
:103DC0002423C0F8AC2FD1F82823C0F8B02FD1F8A5
:103DD0002C13BDE8F00300F57A6044E710B5044603
:103DE000011D1948FFF7A3FF04F54D711748FFF7B0
:103DF0009EFFD4F864161648FFF767FFBDE8104031
:103E000000F028B84465766963657320496E69746B
:103E10002053746172742E2E2E0A00004465766958
:103E200063657320496E6974204F6B210A0000009E
:103E300030570500E0673500A086010070110100D1
:103E400060AE0A00C0CF6A0048C3002000D3002043
:103E5000B8E200202DE9FC5FFCA002F007FC4FF067
:103E6000020A8DF804A003208DF805000020FD4D06
:103E70008DF806008DF80700A862286140200090A8
:103E80006946F94801F060FC02220621F64801F07B
:103E9000CFFCF64CF649B4F8700F0880091DD4F831
:103EA000740F0860F2491C39098841F00102F04999
:103EB0001C390A80EE4924390988ED4A41F0200175
:103EC000243A1180EA4910390988E94A41F0600131
:103ED000103A1180E64908390A8842F001020A8046
:103EE000E34940080C310860E1482838018841F076
:103EF00080010180018841F00101018005211E201F
:103F000000F0E5F91E2000F0D7F9DFF868834FF4E0
:103F10000040009069464646404601F015FC0122EB
:103F20000F21304601F084FC082000906946CE48FD
:103F300001F00AFC01220321CB4801F079FCA4F531
:103F40008056CD48B6F8A01F0185D6F8A41FC162DF
:103F5000018941F036010181818941F001018181AE
:103F6000818841F020018180018841F08801018031
:103F70000521192000F0ABF9192000F09DF9294620
:103F800000208862BD488862D6F8A80F00EB800048
:103F90000A30C8624E63BA480863886A40F011006C
:103FA000886201210C2000F092F90C2000F084F9C5
:103FB0004FF0804000210185A821C162542646634C
:103FC0008663018821F070010180018841F0800141
:103FD0000180AC4FB9680129018B7DD021F06001CF
:103FE0000183F9680129018B77D021F4C041018355
:103FF000018B40F6080B41EA0B010183818941F4F2
:1040000080718181B0F8481040F20A4941EA090103
:10401000A0F84810B0F8441041F40041A0F8441052
:10402000994AD2F8AC1F01B10221D2F8B02F02B1E7
:104030002022114341F011010184018941F0060160
:104040000181012000906946404601F07DFB02227B
:104050000021404601F0ECFB69464046CDF800A047
:1040600001F072FB02220121404601F0E1FB874989
:10407000B4F8580F0880091DD4F85C0F0860834815
:104080002038018841F026010180001D018841F09F
:10409000010101807D482438018841F02001018020
:1040A000001F018841F08801018005212C2000F0CB
:1040B0000EF92C2000F000F94FF00008C5F8108030
:1040C00073482861D4F8600F00EB80000A30686103
:1040D00066484838E86101E061E063E06D48A86146
:1040E000286940F01100286101210B2000F0EFF851
:1040F0000B2000F0E1F867492439A1F80080A820DE
:10410000091D0860634818380660001D0660614894
:104110004C38018821F070010180018841F0800154
:1041200001805C4839693438012901883DD021F08B
:104130006001018079690129018839D021F4C041E9
:104140000180018841EA0B01018052484038018812
:1041500041F4807101804F49091F0A8842EA09022F
:104160000A80081F018841F400410180D4F8640FDF
:1041700000B10220D4F8681F01B12021084345494D
:1041800040F011002C39088042484438018841F041
:104190003601018040A002F069FABDE8FC9F41F0C1
:1041A00060011DE741F4C04121E741F06001C0E733
:1041B00041F4C041C4E72E490020183908803B482B
:1041C000006841073A484FF0040101D501F023BBD4
:1041D00001F01FBB28490020088270472B490020AE
:1041E0001839088070474FF08040018821F00101A4
:1041F00001801C48816841F474618160816A41F0EA
:104200000101816229480068010729484FF008012F
:1042100001D501F000BB01F0FCBA1E484C38018802
:1042200021F0010101800F48816841F03D0181606A
:10423000016941F0010101611E484169CA054FF45D
:10424000807101D501F0E7BA01F0E3BA54696D65F8
:10425000727320496E69742053746172742E2E2E0D
:104260000A000000006002400004024048D3002021
:1042700028080040000002400000014040540306AE
:104280004C00004030C3002048C3002028040140F7
:104290004054030C4C0C004054696D657273204906
:1042A0006E6974204F6B210A00000000141C02404C
:1042B000001C02400020024000F01F02012191403A
:1042C0004009800000F1E020C0F8001170470907A4
:1042D000090E002806DA00F00F0000F1E02080F857
:1042E000141D704700F1E02080F8001470470000B2
:1042F00010B5184C0421204601F08DFA0821204603
:1043000001F089FAA115144C204601F084FA211518
:104310002046BDE8104001F07EBA1CB501208DF8A2
:10432000040003208DF8050000208DF806008DF8AC
:1043300007000C2000906946064801F005FA4FF48A
:10434000A06000906946044801F0FEF9FFF7D0FF35
:104350001CBD0000001C024000200240FE48808A74
:1043600040F29F114843FD4901EB8000FFF736BD45
:104370000288491E521C92B28A4200D90022026071
:10438000FFF700BC0288521E92B28A4201D9491E30
:104390008AB20260FFF7F6BBEF4A30B4D188062339
:1043A000491E91FBF3F49088401E80B2844202DAE9
:1043B00091FBF3F080B2908030BCFFF7E3BBE6499D
:1043C0000623CA888888521E92FBF3F2401C80B2F2
:1043D000824200DA00208880FFF7D4BBDE490888DB
:1043E000401E80B2042800D904200880FFF7CABB11
:1043F000D9490888401C80B2042800D900200880D0
:10440000FFF7C0BB10B5016839B100210160FFF7AB
:10441000A5FFBDE81040FFF7B5BB0121F6E72DE988
:10442000F0411E4617460C460546FDF769FE01465B
:10443000CB4ACC48FDF7A7FFCA4801884088A9426B
:104440000AD3EA198A4207D3A04205D3A1198142AF
:1044500002D30120BDE8F0810020FBE72DE9F04107
:104460001D4616460F468046FFF7D9FF0028F1D0BB
:10447000002414200021FEF758F9641CA4B22B4636
:10448000324639464046FFF7CAFF0028F0D10A2CD1
:10449000EFD90120DEE7B04A10B5918801EB410168
:1044A00000EB4100D18880B2814200D99082002087
:1044B0009061D061FFF752FFBDE81040FFF762BB8B
:1044C00030B4B0F8202393B20CE000EB03125B1E73
:1044D00052F8104D9BB21461546854619468946111
:1044E000D468D4610A689A42EFD3D0F82023521CD2
:1044F000C0F820230868401C086030BC2EE730B4A8
:10450000D0F82023022A1DD30A8893B20BE000EBD7
:1045100003125B1C146914605469546094699460BC
:10452000D469D4609BB2D0F820239A42EFD8D0F857
:104530002023521EC0F82023086808B1401E0860DE
:1045400030BC0BE730BC70472DE9F04714235022F4
:104550000021F520FFF782FF08B1FFF71DFF0024BF
:104560002525C4EB041005EB400081B21423502232
:10457000F020FFF773FF10B1E0B2FFF78CFF641C6F
:10458000A4B2062CEDD314235022D721F520FFF737
:1045900065FF08B1FFF713FF14233C2215213320D8
:1045A000FFF75CFF0026DFF8C0816B4D6B4C0127E5
:1045B0004FF4FA69D0B1288840F29F110028A88AE8
:1045C00000FB01F0A96904EB800000EB01107CD036
:1045D0000830A86285F82560C5E90B6885F8247065
:1045E000FFF7D0FA48460021FEF79FF814233C223B
:1045F0002A213320FFF732FFD8B1288840F29F11DB
:104600000028A88A00FB01F0E96904EB800000EBB8
:1046100001107CD000F54E70A86285F82560C5E9D0
:104620000B6885F82470FFF7ADFA48460021FEF7C5
:104630007CF814233C2215217020FFF70FFFB0B146
:10464000A88A40F29F114843A96904EB800000EB5F
:1046500001100C30A86285F82560C5E90B6885F863
:104660002470FFF78FFA48460021FEF75EF8142306
:104670003C222A217020FFF7F1FEB8B1A88A40F24F
:104680009F114843E96904EB800000EB011000F53D
:104690004F70A86285F82560C5E90B6885F824701D
:1046A000FFF770FA48460021FEF73FF814233C223A
:1046B0001521AD20FFF7D2FEC0B1A88A40F29F11AC
:1046C000484304EB8000A96900E077E100EB0110AA
:1046D0001030A86285F82570C5E90B6885F824704C
:1046E000FFF750FA48460021FEF71FF814233C223A
:1046F0002A21AD20FFF7B2FEC8B1A88A40F29F116F
:104700004843E96904EB800000EB011000E057E149
:1047100000F55070A86285F82570C5E90B6885F82A
:104720002470FFF72FFA48460021FDF7FEFF1423FF
:104730003C225B213320FFF791FEF8B1A88A40F2BA
:104740009F11484304EB800000F54C70A86285F887
:104750002560C5E90B6809E0C8EF00208C00002047
:1047600048000020140000208096980085F82470EE
:10477000FFF708FA48460021FDF7D7FF14233C2233
:1047800070213320FFF76AFEA0B1A88A40F29F1182
:10479000484304EB800000F5CC60A86285F82560F2
:1047A000C5E90B6885F82470FFF7ECF9484600214D
:1047B000FDF7BBFF14233C22BE215B20FFF74EFE1A
:1047C000A0B1A88A40F29F11484304EB800000F298
:1047D0006460A86285F82560C5E90B7885F82470C7
:1047E000FFF7D0F948460021FDF79FFF14233C2234
:1047F0005B217020FFF732FE68B1288840F29F11DC
:104800000028A88A00FB01F004EB80007ED000F5B0
:104810004B70FFF7F7FD702114233C220846FFF789
:104820001DFE68B1288840F29F110028A88A00FB6D
:1048300001F004EB80006AD000F25C60FFF7E2FD5B
:1048400014233C225B21AD20FFF708FE30B12888FD
:104850000028FE487DD00C30FFF7D4FD14233C2205
:104860007021AD20FFF7FAFD30B128880028F74805
:1048700070D01430FFF7C6FD14231A468C21332064
:10488000FFF7ECFDF24F50B1A88A40F29F11484368
:1048900004EB8000D0F824133846FFF773FD14238F
:1048A0001A468C21AB20FFF7D9FD50B1A88A40F2FF
:1048B0009F11484304EB8000D0F824133846FFF7DB
:1048C00057FD14231A46A1213320FFF7C7FDE04E00
:1048D000361D50B1A88A40F29F11484304EB800076
:1048E000D0F854163046FFF74DFD14231A46A12187
:1048F000AB20FFF7B3FD68B1A88A40F29F1148438F
:1049000004EB8000D0F85416304601E05BE05DE037
:10491000FFF72EFD14231A468C21C020FFF79EFDC1
:1049200058B1A88A40F29F11484304EB80003946F1
:10493000001DFFF7C5FDFFF725F914231A468C214A
:10494000D520FFF78BFD70B1A88A40F29F11484334
:1049500001E03EE03FE004EB80003946001DFFF738
:10496000CEFDFFF70FF914231A46A121C020FFF74F
:1049700075FD60B1A88A40F29F11484304EB8000A6
:10498000314600F54D70FFF79BFDFFF7FBF8142350
:104990001A46A121D520FFF761FD00281DD0A88A65
:1049A00040F29F11484304EB8000314600F54D7002
:1049B000FFF7A5FDBDE8F047FFF7E4B8001D08E6E6
:1049C00000F54D7028E600F54A7022E700F5CB604F
:1049D00034E7083040E710304CE7BDE8F08710B509
:1049E00014232822DC216420FFF738FD20B10020A9
:1049F000FDF765F8FFF7C6F814231A46DC218C2072
:104A0000FFF72CFD924C183C10B14FF478402084F5
:104A100014231A46DC21A020FFF720FD10B14FF629
:104A2000E050208414231A46DC21B420FFF716FD41
:104A300010B14FF6E070208414231A46DC21C82000
:104A4000FFF70CFD10B14FF4FC6020841423DC212F
:104A50001A460846FFF702FD08B11F2020841423E0
:104A60001A46DC21F020FFF7F9FC10B14FF61F00C9
:104A7000208414231A46DC214FF48270FFF7EEFCE9
:104A800010B147F6FF70208414231A46DC214FF43E
:104A90008C70FFF7E3FC10B14FF6FF7020841423F5
:104AA0001A46DC214FF49670FFF7D8FC002801D09D
:104AB0000020208410BD30B4654D0023183DAA6A43
:104AC00011680818296B43EB03040D1AA34100DA9F
:104AD0000846106030BCFEF7DABD30B45C4D0023F0
:104AE000183DAA6A1168081AE96A63EB0304451ABB
:104AF0009C4100DA0846106030BCFEF7C8BD1E239A
:104B000010B51A4619464FF48270FFF7A7FC504CB7
:104B1000183C40B1002084F82400FCF7D0FFFFF7D8
:104B200031F8FFF71BFC23221E2377211046FFF7E5
:104B300095FC10B10120FFF7BEFF23221E23AB21FD
:104B40001046FFF78BFC10B10120FFF7C6FF1E23B4
:104B5000232277214720FFF781FC10B10A20FFF7BD
:104B6000AAFF1E232322AB214720FFF777FC10B1B9
:104B70000A20FFF7B2FF1E23232277216B20FFF7C5
:104B80006DFC10B16420FFF796FF1E232322AB219A
:104B90006B20FFF763FC10B16420FFF79EFF94F8D1
:104BA0002500002860D11E23232277218F20FFF7C4
:104BB00055FC4FF47A7410B12046FFF77CFF1E239A
:104BC0002322AB218F20FFF749FC10B12046FFF7CD
:104BD00084FF1E2323227721B320FFF73FFC42F2FC
:104BE000107410B12046FFF766FF1E232322AB216D
:104BF000B320FFF733FC10B12046FFF76EFF1E23F2
:104C000023227721D720FFF729FC124C10B1204630
:104C1000FFF751FF1E232322AB21D720FFF71EFCF5
:104C200010B12046FFF759FF1E2323227721FB20D6
:104C3000FFF714FC084C10B12046FFF73CFF1E2381
:104C40002322AB21FB20FFF709FC07E030C3002043
:104C5000E0EF0020A086010040420F00002803D0B2
:104C60002046BDE8104038E710BDA44810B5808A42
:104C700040F29F114843A24901EB800404F26964A9
:104C8000204601F039FA401E01B2002901DB002064
:104C9000605410BD70B50546984840F29F11808A57
:104CA0004843974901EB800404F26964204601F00F
:104CB00023FA092807D822462B46BDE8704091A167
:104CC000104601F0E3BC70BD2DE9F04100258C4E8B
:104CD000284640F29F11414306EB8101096829B142
:104CE0006D1C401C80B2ADB21E28F2D3022D1DD324
:104CF000824F40F27C68BC8A0BE040F29F10604318
:104D000006EB800000F27C61424601F0D1F9641CA0
:104D1000A4B2AC42F1D3B88A00B1401EB882F88880
:104D2000401EF880BDE8F041FFF718BBBDE8F081F8
:104D30002DE9F0410024724D204640F29F1141437D
:104D400005EB8101096829B1641C401C80B2A4B242
:104D50001E28F2D31D2CE9D8684E40F27C670CE087
:104D600040F29F1104FB01F005EB8000A0F27C6192
:104D70003A4601F09DF9641EA4B2B08AA042EFD376
:104D800080B21E2801D91E2000E0401CB082F088AD
:104D900040F29F11401CF080B08A5CA2484305EBB2
:104DA00080005DA100F2696001F070FCBDE8F04197
:104DB000FFF7D4BABAE7FEB5142364220021DC2041
:104DC000FFF74CFB18B1FFF77FFFFEF7DBFE142364
:104DD0006E2219210020FFF741FB18B1FFF7A8FF51
:104DE000FEF7D0FE20208DF8000000208DF8010095
:104DF0000546C5EBC500002400EB400635369DF89E
:104E000000007F2810D2C4EBC40000EB40000F303C
:104E10001423B1B280B21A46FFF720FB20B16846D6
:104E2000FFF738FFFEF7AEFE9DF80000641C401C43
:104E3000A4B28DF800000E2CE1D36D1CADB2072D8D
:104E4000D7D314233E22B321F620FFF707FB18B176
:104E5000FFF70BFFFEF796FE14233C22DC21A02077
:104E6000FFF7FCFA002802D02C4901200860FEBDA3
:104E7000224810B590F82410E1B1FFF740FE14234A
:104E80001A46DC210020FFF7E9FA20B10020FCF7E8
:104E900016FEFFF7A3FA14231A46DC215020FFF771
:104EA000DDFA002828D00020FCF709FEBDE81040FC
:104EB000FFF79EBA00880528E1D2DFE800F003037F
:104EC00006091A00FFF740FBD9E7FFF788FDD6E790
:104ED00032216423DC220846FFF7C0FA0028CED036
:104EE0000F48FDF7B8FA0D4901200860FEF74AFEA9
:104EF000C5E7FFF760FFC2E710BD0000C8EF002064
:104F00008C00002025732573000000004E6577207B
:104F100050726F67000000002573000030C300204E
:104F200014C300207CB5A54D07220221284600F0BD
:104F30007FFC07220321284600F07AFC02210C2086
:104F400000908DF8041003208DF8050000248DF8E2
:104F500006408DF807406946284600F0F5FB984961
:104F6000A4200880091D42F22C00088094480C30CF
:104F7000018841F0800101800821262000F00EF90F
:104F8000262000F000F98E498E48091F40F8A81F1E
:104F90008D4941600621112000F000F9112000F038
:104FA000F2F88A49A8200880884901202839088019
:104FB000864A2021243A118084491C390880062120
:104FC000372000F0EBF8372000F0DDF88048C0F81B
:104FD000000DA0F8044D7CBD7A49C1F8A4007D48BD
:104FE000C1F8A00070477748C16841F47411C160EE
:104FF0007047794810B50068010778484FF00801FC
:1050000002D500F008FC01E000F003FC6C48001F32
:1050100001886F48D0F8002D1170D0F8001D491C90
:10502000C0F8001DB0F8041D491C89B2A0F8041D89
:10503000B1F5D06F04D90021A0F8041DC0F8000D0F
:1050400062494FF69B70091F0860604901202839AA
:1050500008805E491C39088010BD5C490020183961
:1050600008805A492839088058491C39088058490D
:10507000012081F8060D7047034610B50020024656
:1050800004E09C5C521C2044C0B292B28A42F8D325
:1050900010BD10B54E4C40F29F11207884F8800668
:1050A000607884F88106A07884F8820610FB01F00D
:1050B0004B4940F27C6201EB800104F28460A1F272
:1050C0007C6100F0F5FF40F27F613F48FFF7D4FFBD
:1050D00084F88306BDE810404FF4D0607CE770B5DB
:1050E0003B4C94F8060D00284CD0002084F8060DA7
:1050F000B4F8041DA4F8040DC4F8004DE578E07080
:105100002046FFF7B9FFA8423CD12078102839D1BA
:10511000A078002836D01E2834D86278072A13D009
:105120000D2A2FD140F29F1110FB01F02C4940F2C3
:105130007C6201EB8000211DA0F27C6000F0B8FFD2
:10514000A0781D2803D009E0BDE87040A1E72549FB
:1051500001200860FDF704FDFEF714FD207884F8B7
:105160008006607884F88106A07884F882064FF47F
:10517000D0611548FFF780FF84F88306BDE87040D2
:10518000042029E770BD00F01F0201219140400971
:10519000800000F1E020C0F8001170470907090EF7
:1051A000002806DA00F00F0000F1E02080F8141D5E
:1051B000704700F1E02080F80014704700000240C2
:1051C000084400400060024040E9002028140040EC
:1051D000C0E2002051040008141C0240001C0240E0
:1051E0008C00002030C30020064880470648004756
:1051F000FEE7FEE7FEE7FEE7FEE7FEE7FEE7FEE787
:10520000FEE7FEE7D75F0008890100088100A1F1F1
:10521000C04140B143F2D20008606FF07040486076
:10522000C1F8040170474FF0204243F2DB001060E8
:10523000F3E710B5D0E901121143D0E903231A4373
:1052400011434269114382691143C2691143026AE1
:105250001143426A1143826A1143C26A1143026BCD
:10526000114302689200A2F1C042116081680829CE
:1052700007D101688900A1F1C0410A6842F04002EB
:105280000A60416BD1E9002342EA03128B688C89E2
:105290001B0243EA04431A430B8A42EA03520B7D82
:1052A000896942EA03620A4301688900A1F1C041A9
:1052B0004A60C16AB1F5804F08D000686FF0704154
:1052C0008000A0F1C040C0F8041110BD816BD1E98D
:1052D000002342EA03128B680C8A1B0243EA045340
:1052E0001A430B7D896942EA036200680A43800021
:1052F000A0F1C040C0F8042110BD10B50021022269
:10530000C0E900128160C160016141618161D20226
:10531000C161C0E908125200C0E90A210163436B70
:105320000F221A60436B5A60446BFF23A360446BE7
:10533000E260446B2261446B6261446BA161846BE7
:105340002260846B6260846BA360836BDA60836B22
:105350001A61836B5A61806B816110BD8000A0F17E
:10536000C0400029016802D041F0010101E0C54AB6
:1053700011400160704710B5182340244FF02041C0
:105380004FF0FC32102805D041F8803F4C608A6015
:10539000CA6010BD0B664C668A66CA6610BD30B521
:1053A000D0E901121143D0E903231A4311434269A2
:1053B00041EA4221826941EA423141F00804C1696F
:1053C000D1E9002342EA03220B89097B1B0443EA4B
:1053D00001610A43016AD1E9003543EA05230D89D9
:1053E000097B2D0445EA01610B4301684FF0204021
:1053F000102904D040F8804F8260C36030BD04663D
:105400008266C36630BD1021016000214160816069
:10541000C160016141618161C269FC211160C269A1
:105420005160C2699160C269D160026A1160026A0A
:105430005160026A9160006AC16070474FF020427B
:1054400051B1102804D052F8800F40F004000AE057
:10545000106E40F004000AE08A49C91E102804D0EA
:1054600052F8800F084010607047106E08401066B8
:1054700070474FF0204251B1102804D052F8800FED
:1054800040F040000AE0106E40F040000AE07D4924
:105490003F39102804D052F8800F08401060704740
:1054A000106E0840106670474FF02041102802D05F
:1054B000D1F894007047486F70474FF02040182192
:1054C00040F8A01F002141604FF0FC318160C160B5
:1054D0000161704710B5D0E9001241EA42218268AB
:1054E000102343EA423211434FF0204242F8A01FFA
:1054F000C168D1E9003443EA04230C89097B240400
:1055000044EA01610B4393600169D1E9003443EA45
:1055100004230C89097B240444EA01610B43D36012
:105520004069D0E9001341EA03210389007B1B0491
:1055300043EA00600143116110BD00210160416038
:105540008160C268FC211160C2685160C2689160CC
:10555000C268D1600269116002695160026991609C
:105560000269D1604269116042695160426991608B
:105570004069C16070474FF02041002851F8A00FEA
:1055800002D040F0040002E03E4AD21E1040086003
:10559000704710B54FF480744FF0204372B110285B
:1055A00004D0A04205D153F8840F04E0586E08439C
:1055B0000DE053F8A40F0843186010BD102804D064
:1055C000A04206D153F8840F05E0586E8843586610
:1055D00010BD53F8A40F8843EEE7034600204FF0B8
:1055E0002042102B08D0B3F5807F07D0D2F8A4203A
:1055F0000A4200D001207047526EF9E7D2F88420A9
:10560000F6E74FF02042102807D0B0F5807F08D091
:1056100052F8A40F884310607047506E884350665C
:10562000704752F8840FF5E7034600204FF0204200
:10563000102B0CD0B3F5807F0BD0D2F8A4200A42F7
:1056400002EAD10102D0002900D001207047526E39
:10565000F5E7D2F88420F2E74FF02042102808D076
:10566000B0F5807F0AD052F8A40F20EAD100106074
:105670007047506E20EAD1005066704752F8840F90
:10568000F3E70000FEFF0F00714910B5884206D114
:105690000121084600F042FA002101204FE06D4947
:1056A000884206D10121022000F038FA00210220B0
:1056B00045E06949884206D10121042000F02EFA14
:1056C000002104203BE06549884206D101210820E1
:1056D00000F024FA0021082031E06149884206D117
:1056E0000121102000F01AFA0021102027E05D4966
:1056F000884206D10121202000F010FA002120204C
:105700001DE05949884206D10121402000F006FAE7
:105710000021402013E05549884206D10121802014
:1057200000F0FCF90021802009E0514988420AD1AB
:1057300084150121204600F0F1F900212046BDE842
:10574000104000F0EBB910BDF0B5002201274FF07A
:10575000030C0B6807FA02F52B40AB422CD106680C
:1057600053000CFA03F4A64306600E79D0F800E06B
:105770009E4046EA0E0606600E79012E01D0022EEA
:1057800012D18668A64386604E79D0F808E09E4024
:1057900046EA0E0686604668AE43466045688E79E6
:1057A0009640B6B235434560C568A543C560CC791F
:1057B0009C40C3681C43C460521C102AC9D3F0BD6E
:1057C0004FF6FF7101600021017141718171C1715A
:1057D000704708B541F480320092C261C1610099FE
:1057E000C161C169C069009008BD0246002012690C
:1057F0000A4200D001207047006980B2704702461B
:10580000002052690A4200D001207047406980B2EE
:10581000704701837047418370470AB10183704725
:10582000418370474161704742694A404261704715
:105830004B07DB0E9A40C90810B500EB8100016AE6
:105840000F249C40A1430162016A1143016210BD13
:10585000000002400004024000080240000C024028
:10586000001002400014024000180240001C0240D8
:1058700000200240EA48016841F001010160E84A65
:105880000021083211600268E64B1A400260031DD5
:10589000E54A1A60026822F480220260E0480C3077
:1058A00001607047DE490022891C0A700870704749
:1058B00002460020510901290CD002290CD0D849F8
:1058C0007431096802F01F02012393400B4200D09B
:1058D00001207047D249F4E7D1497031F1E718B59A
:1058E00000204FF4A06400903120FFF7E1FF009901
:1058F000491C0091A14201D00028F5D03120FFF7CA
:10590000D7FF002800D0012018BDC54A116821F03A
:10591000F80141EAC00010607047C4490860704750
:10592000BF49002270310A700A70012802D0042891
:1059300001D1052008707047BD490860704741EAF1
:1059400082115A0810B5BB4B029C03EB0242114373
:10595000014341EA0460B249091D086010BDB34922
:1059600008667047800140EA0170AD4984310860E3
:105970007047AE4988667047AC49C8647047A84B09
:1059800008331A68084322F0EC621043186070472D
:10599000A34B08331A68084322F07842104318607A
:1059A00070479F4A0832116821F0030101431160DA
:1059B00070479B480830006800F00C007047984A18
:1059C0000832116821F0F001014311607047944AD8
:1059D0000832116821F4E051014311607047904A88
:1059E0000832116821F4604141EAC000106070473C
:1059F00070B58B4B083319688F4C11F00C0104D033
:105A00006610042903D0082903D004601BE0066057
:105A100019E0834A121D1168C1F38055116801F025
:105A20003F0115B1B6FBF1F101E0B4FBF1F11468EF
:105A30001268C4F388146143C2F30142521C52003D
:105A4000B1FBF2F1016019680F2202EA11117B4AE1
:105A5000545C0168E14041601C68072505EA942414
:105A6000145D21FA04F484601B6805EA5333D25CA8
:105A7000D140C16070BDC0F30121032908D1684B3A
:105A8000083319686E4A21F4F81102400A431A607B
:105A9000634970310A68C0F30B0002430A60704723
:105AA000634944390860704761494039086070476C
:105AB0005E49C1F85C017047594A303200291168CB
:105AC00001D0014300E0814311607047544A3432F1
:105AD0000029116801D0014300E081431160704743
